{
  "_format": "hh-sol-artifact-1",
  "contractName": "OilToken",
  "sourceName": "contracts/OilToken.sol",
  "abi": [
    {
      "inputs": [],
      "stateMutability": "nonpayable",
      "type": "constructor"
    },
    {
      "anonymous": false,
      "inputs": [
        {
          "indexed": true,
          "internalType": "address",
          "name": "owner",
          "type": "address"
        },
        {
          "indexed": true,
          "internalType": "address",
          "name": "spender",
          "type": "address"
        },
        {
          "indexed": false,
          "internalType": "uint256",
          "name": "value",
          "type": "uint256"
        }
      ],
      "name": "Approval",
      "type": "event"
    },
    {
      "anonymous": false,
      "inputs": [
        {
          "indexed": true,
          "internalType": "address",
          "name": "previousOwner",
          "type": "address"
        },
        {
          "indexed": true,
          "internalType": "address",
          "name": "newOwner",
          "type": "address"
        }
      ],
      "name": "OwnershipTransferred",
      "type": "event"
    },
    {
      "anonymous": false,
      "inputs": [
        {
          "indexed": true,
          "internalType": "address",
          "name": "from",
          "type": "address"
        },
        {
          "indexed": true,
          "internalType": "address",
          "name": "to",
          "type": "address"
        },
        {
          "indexed": false,
          "internalType": "uint256",
          "name": "value",
          "type": "uint256"
        }
      ],
      "name": "Transfer",
      "type": "event"
    },
    {
      "anonymous": false,
      "inputs": [
        {
          "indexed": true,
          "internalType": "address",
          "name": "claimer",
          "type": "address"
        },
        {
          "indexed": false,
          "internalType": "uint256",
          "name": "amount",
          "type": "uint256"
        }
      ],
      "name": "claimLog",
      "type": "event"
    },
    {
      "inputs": [
        {
          "internalType": "address",
          "name": "owner",
          "type": "address"
        },
        {
          "internalType": "address",
          "name": "spender",
          "type": "address"
        }
      ],
      "name": "allowance",
      "outputs": [
        {
          "internalType": "uint256",
          "name": "",
          "type": "uint256"
        }
      ],
      "stateMutability": "view",
      "type": "function"
    },
    {
      "inputs": [
        {
          "internalType": "address",
          "name": "spender",
          "type": "address"
        },
        {
          "internalType": "uint256",
          "name": "amount",
          "type": "uint256"
        }
      ],
      "name": "approve",
      "outputs": [
        {
          "internalType": "bool",
          "name": "",
          "type": "bool"
        }
      ],
      "stateMutability": "nonpayable",
      "type": "function"
    },
    {
      "inputs": [
        {
          "internalType": "address",
          "name": "account",
          "type": "address"
        }
      ],
      "name": "balanceOf",
      "outputs": [
        {
          "internalType": "uint256",
          "name": "",
          "type": "uint256"
        }
      ],
      "stateMutability": "view",
      "type": "function"
    },
    {
      "inputs": [
        {
          "internalType": "uint256",
          "name": "amount",
          "type": "uint256"
        }
      ],
      "name": "claim",
      "outputs": [],
      "stateMutability": "nonpayable",
      "type": "function"
    },
    {
      "inputs": [],
      "name": "decimals",
      "outputs": [
        {
          "internalType": "uint8",
          "name": "",
          "type": "uint8"
        }
      ],
      "stateMutability": "view",
      "type": "function"
    },
    {
      "inputs": [
        {
          "internalType": "address",
          "name": "spender",
          "type": "address"
        },
        {
          "internalType": "uint256",
          "name": "subtractedValue",
          "type": "uint256"
        }
      ],
      "name": "decreaseAllowance",
      "outputs": [
        {
          "internalType": "bool",
          "name": "",
          "type": "bool"
        }
      ],
      "stateMutability": "nonpayable",
      "type": "function"
    },
    {
      "inputs": [
        {
          "internalType": "address",
          "name": "spender",
          "type": "address"
        },
        {
          "internalType": "uint256",
          "name": "addedValue",
          "type": "uint256"
        }
      ],
      "name": "increaseAllowance",
      "outputs": [
        {
          "internalType": "bool",
          "name": "",
          "type": "bool"
        }
      ],
      "stateMutability": "nonpayable",
      "type": "function"
    },
    {
      "inputs": [],
      "name": "issueToken",
      "outputs": [],
      "stateMutability": "nonpayable",
      "type": "function"
    },
    {
      "inputs": [],
      "name": "name",
      "outputs": [
        {
          "internalType": "string",
          "name": "",
          "type": "string"
        }
      ],
      "stateMutability": "view",
      "type": "function"
    },
    {
      "inputs": [],
      "name": "owner",
      "outputs": [
        {
          "internalType": "address",
          "name": "",
          "type": "address"
        }
      ],
      "stateMutability": "view",
      "type": "function"
    },
    {
      "inputs": [],
      "name": "renounceOwnership",
      "outputs": [],
      "stateMutability": "nonpayable",
      "type": "function"
    },
    {
      "inputs": [],
      "name": "symbol",
      "outputs": [
        {
          "internalType": "string",
          "name": "",
          "type": "string"
        }
      ],
      "stateMutability": "view",
      "type": "function"
    },
    {
      "inputs": [],
      "name": "totalSupply",
      "outputs": [
        {
          "internalType": "uint256",
          "name": "",
          "type": "uint256"
        }
      ],
      "stateMutability": "view",
      "type": "function"
    },
    {
      "inputs": [
        {
          "internalType": "address",
          "name": "to",
          "type": "address"
        },
        {
          "internalType": "uint256",
          "name": "amount",
          "type": "uint256"
        }
      ],
      "name": "transfer",
      "outputs": [
        {
          "internalType": "bool",
          "name": "",
          "type": "bool"
        }
      ],
      "stateMutability": "nonpayable",
      "type": "function"
    },
    {
      "inputs": [
        {
          "internalType": "address",
          "name": "from",
          "type": "address"
        },
        {
          "internalType": "address",
          "name": "to",
          "type": "address"
        },
        {
          "internalType": "uint256",
          "name": "amount",
          "type": "uint256"
        }
      ],
      "name": "transferFrom",
      "outputs": [
        {
          "internalType": "bool",
          "name": "",
          "type": "bool"
        }
      ],
      "stateMutability": "nonpayable",
      "type": "function"
    },
    {
      "inputs": [
        {
          "internalType": "address",
          "name": "newOwner",
          "type": "address"
        }
      ],
      "name": "transferOwnership",
      "outputs": [],
      "stateMutability": "nonpayable",
      "type": "function"
    }
  ],
  "bytecode": "0x6080604052678ac7230489e800006006553480156200001d57600080fd5b506040518060400160405280600881526020016727b4b62a37b5b2b760c11b8152506040518060400160405280600381526020016213d25360ea1b81525081600390805190602001906200007392919062000102565b5080516200008990600490602084019062000102565b505050620000a6620000a0620000ac60201b60201c565b620000b0565b620001e5565b3390565b600580546001600160a01b038381166001600160a01b0319831681179093556040519116919082907f8be0079c531659141344cd1fd0a4f28419497f9722a3daafe3b4186f6b6457e090600090a35050565b8280546200011090620001a8565b90600052602060002090601f0160209004810192826200013457600085556200017f565b82601f106200014f57805160ff19168380011785556200017f565b828001600101855582156200017f579182015b828111156200017f57825182559160200191906001019062000162565b506200018d92915062000191565b5090565b5b808211156200018d576000815560010162000192565b600281046001821680620001bd57607f821691505b60208210811415620001df57634e487b7160e01b600052602260045260246000fd5b50919050565b610e7080620001f56000396000f3fe608060405234801561001057600080fd5b50600436106101005760003560e01c8063715018a611610097578063a457c2d711610066578063a457c2d7146101e8578063a9059cbb146101fb578063dd62ed3e1461020e578063f2fde38b1461022157610100565b8063715018a6146101bb5780638da5cb5b146101c357806395d89b41146101d8578063a1ee8c78146101e057610100565b8063313ce567116100d3578063313ce5671461016b578063379607f514610180578063395093511461019557806370a08231146101a857610100565b806306fdde0314610105578063095ea7b31461012357806318160ddd1461014357806323b872dd14610158575b600080fd5b61010d610234565b60405161011a9190610ada565b60405180910390f35b610136610131366004610a78565b6102c6565b60405161011a9190610acf565b61014b6102e8565b60405161011a9190610daf565b610136610166366004610a38565b6102ee565b61017361031c565b60405161011a9190610db8565b61019361018e366004610aa3565b610321565b005b6101366101a3366004610a78565b610471565b61014b6101b63660046109c1565b61049d565b6101936104b8565b6101cb61050c565b60405161011a9190610abb565b61010d61051b565b61019361052a565b6101366101f6366004610a78565b61057c565b610136610209366004610a78565b6105c4565b61014b61021c366004610a00565b6105dc565b61019361022f3660046109c1565b610607565b60606003805461024390610dea565b80601f016020809104026020016040519081016040528092919081815260200182805461026f90610dea565b80156102bc5780601f10610291576101008083540402835291602001916102bc565b820191906000526020600020905b81548152906001019060200180831161029f57829003601f168201915b5050505050905090565b6000806102d1610678565b90506102de81858561067c565b5060019392505050565b60025490565b6000806102f9610678565b9050610306858285610730565b61031185858561077a565b506001949350505050565b601290565b60065481111561033057600080fd5b600061033a610678565b90506000306001600160a01b0316638da5cb5b6040518163ffffffff1660e01b815260040160206040518083038186803b15801561037757600080fd5b505afa15801561038b573d6000803e3d6000fd5b505050506040513d601f19601f820116820180604052508101906103af91906109e4565b9050826103bb8261049d565b101561041557306001600160a01b031663a1ee8c786040518163ffffffff1660e01b8152600401600060405180830381600087803b1580156103fc57600080fd5b505af1158015610410573d6000803e3d6000fd5b505050505b61042081838561067c565b61042b81838561077a565b816001600160a01b03167fe98d4218128b519334b47ed652f4d40d8edd3358e92bd6f0ce68315c57007df6846040516104649190610daf565b60405180910390a2505050565b60008061047c610678565b90506102de81858561048e85896105dc565b6104989190610dc6565b61067c565b6001600160a01b031660009081526020819052604090205490565b6104c0610678565b6001600160a01b03166104d161050c565b6001600160a01b0316146105005760405162461bcd60e51b81526004016104f790610c75565b60405180910390fd5b61050a600061089e565b565b6005546001600160a01b031690565b60606004805461024390610dea565b610532610678565b6001600160a01b031661054361050c565b6001600160a01b0316146105695760405162461bcd60e51b81526004016104f790610c75565b61050a3368410d586a20a4c000006108f0565b600080610587610678565b9050600061059582866105dc565b9050838110156105b75760405162461bcd60e51b81526004016104f790610d33565b610311828686840361067c565b6000806105cf610678565b90506102de81858561077a565b6001600160a01b03918216600090815260016020908152604080832093909416825291909152205490565b61060f610678565b6001600160a01b031661062061050c565b6001600160a01b0316146106465760405162461bcd60e51b81526004016104f790610c75565b6001600160a01b03811661066c5760405162461bcd60e51b81526004016104f790610b70565b6106758161089e565b50565b3390565b6001600160a01b0383166106a25760405162461bcd60e51b81526004016104f790610cef565b6001600160a01b0382166106c85760405162461bcd60e51b81526004016104f790610bb6565b6001600160a01b0380841660008181526001602090815260408083209487168084529490915290819020849055517f8c5be1e5ebec7d5bd14f71427d1e84f3dd0314c0f7b2291e5b200ac8c7c3b92590610723908590610daf565b60405180910390a3505050565b600061073c84846105dc565b9050600019811461077457818110156107675760405162461bcd60e51b81526004016104f790610bf8565b610774848484840361067c565b50505050565b6001600160a01b0383166107a05760405162461bcd60e51b81526004016104f790610caa565b6001600160a01b0382166107c65760405162461bcd60e51b81526004016104f790610b2d565b6107d18383836109bc565b6001600160a01b0383166000908152602081905260409020548181101561080a5760405162461bcd60e51b81526004016104f790610c2f565b6001600160a01b03808516600090815260208190526040808220858503905591851681529081208054849290610841908490610dc6565b92505081905550826001600160a01b0316846001600160a01b03167fddf252ad1be2c89b69c2b068fc378daa952ba7f163c4a11628f55a4df523b3ef8460405161088b9190610daf565b60405180910390a36107748484846109bc565b600580546001600160a01b038381166001600160a01b0319831681179093556040519116919082907f8be0079c531659141344cd1fd0a4f28419497f9722a3daafe3b4186f6b6457e090600090a35050565b6001600160a01b0382166109165760405162461bcd60e51b81526004016104f790610d78565b610922600083836109bc565b80600260008282546109349190610dc6565b90915550506001600160a01b03821660009081526020819052604081208054839290610961908490610dc6565b90915550506040516001600160a01b038316906000907fddf252ad1be2c89b69c2b068fc378daa952ba7f163c4a11628f55a4df523b3ef906109a4908590610daf565b60405180910390a36109b8600083836109bc565b5050565b505050565b6000602082840312156109d2578081fd5b81356109dd81610e25565b9392505050565b6000602082840312156109f5578081fd5b81516109dd81610e25565b60008060408385031215610a12578081fd5b8235610a1d81610e25565b91506020830135610a2d81610e25565b809150509250929050565b600080600060608486031215610a4c578081fd5b8335610a5781610e25565b92506020840135610a6781610e25565b929592945050506040919091013590565b60008060408385031215610a8a578182fd5b8235610a9581610e25565b946020939093013593505050565b600060208284031215610ab4578081fd5b5035919050565b6001600160a01b0391909116815260200190565b901515815260200190565b6000602080835283518082850152825b81811015610b0657858101830151858201604001528201610aea565b81811115610b175783604083870101525b50601f01601f1916929092016040019392505050565b60208082526023908201527f45524332303a207472616e7366657220746f20746865207a65726f206164647260408201526265737360e81b606082015260800190565b60208082526026908201527f4f776e61626c653a206e6577206f776e657220697320746865207a65726f206160408201526564647265737360d01b606082015260800190565b60208082526022908201527f45524332303a20617070726f766520746f20746865207a65726f206164647265604082015261737360f01b606082015260800190565b6020808252601d908201527f45524332303a20696e73756666696369656e7420616c6c6f77616e6365000000604082015260600190565b60208082526026908201527f45524332303a207472616e7366657220616d6f756e7420657863656564732062604082015265616c616e636560d01b606082015260800190565b6020808252818101527f4f776e61626c653a2063616c6c6572206973206e6f7420746865206f776e6572604082015260600190565b60208082526025908201527f45524332303a207472616e736665722066726f6d20746865207a65726f206164604082015264647265737360d81b606082015260800190565b60208082526024908201527f45524332303a20617070726f76652066726f6d20746865207a65726f206164646040820152637265737360e01b606082015260800190565b60208082526025908201527f45524332303a2064656372656173656420616c6c6f77616e63652062656c6f77604082015264207a65726f60d81b606082015260800190565b6020808252601f908201527f45524332303a206d696e7420746f20746865207a65726f206164647265737300604082015260600190565b90815260200190565b60ff91909116815260200190565b60008219821115610de557634e487b7160e01b81526011600452602481fd5b500190565b600281046001821680610dfe57607f821691505b60208210811415610e1f57634e487b7160e01b600052602260045260246000fd5b50919050565b6001600160a01b038116811461067557600080fdfea26469706673582212208ad8e1d96db67f8124b722e46a6958ba6275f4335a4cdf41bd8eb586e13c52b464736f6c63430008000033",
  "linkReferences": {},
  "deployedLinkReferences": {}
}