{
  "_format": "hh-sol-artifact-1",
  "contractName": "VestingContract",
  "sourceName": "contracts/VestingContract.sol",
  "abi": [
    {
      "inputs": [
        {
          "internalType": "address",
          "name": "_token",
          "type": "address"
        },
        {
          "internalType": "uint256",
          "name": "_firstRelease",
          "type": "uint256"
        },
        {
          "internalType": "uint256",
          "name": "_startTime",
          "type": "uint256"
        },
        {
          "internalType": "uint256",
          "name": "_totalPeriods",
          "type": "uint256"
        },
        {
          "internalType": "uint256",
          "name": "_timePerPeriods",
          "type": "uint256"
        },
        {
          "internalType": "uint256",
          "name": "_cliff",
          "type": "uint256"
        },
        {
          "internalType": "uint256",
          "name": "_totalTokens",
          "type": "uint256"
        }
      ],
      "stateMutability": "nonpayable",
      "type": "constructor"
    },
    {
      "anonymous": false,
      "inputs": [
        {
          "indexed": false,
          "internalType": "address",
          "name": "_address",
          "type": "address"
        },
        {
          "indexed": false,
          "internalType": "uint256",
          "name": "_amount",
          "type": "uint256"
        }
      ],
      "name": "AddWhitelistUser",
      "type": "event"
    },
    {
      "anonymous": false,
      "inputs": [
        {
          "indexed": true,
          "internalType": "address",
          "name": "previousOwner",
          "type": "address"
        },
        {
          "indexed": true,
          "internalType": "address",
          "name": "newOwner",
          "type": "address"
        }
      ],
      "name": "OwnershipTransferred",
      "type": "event"
    },
    {
      "anonymous": false,
      "inputs": [
        {
          "indexed": false,
          "internalType": "address",
          "name": "_address",
          "type": "address"
        }
      ],
      "name": "RemoveWhitelistUser",
      "type": "event"
    },
    {
      "anonymous": false,
      "inputs": [
        {
          "indexed": false,
          "internalType": "uint256",
          "name": "_startTime",
          "type": "uint256"
        }
      ],
      "name": "SetStartTime",
      "type": "event"
    },
    {
      "anonymous": false,
      "inputs": [
        {
          "indexed": false,
          "internalType": "address",
          "name": "_address",
          "type": "address"
        },
        {
          "indexed": false,
          "internalType": "uint256",
          "name": "_tokensClaimed",
          "type": "uint256"
        }
      ],
      "name": "TokenClaimed",
      "type": "event"
    },
    {
      "anonymous": false,
      "inputs": [
        {
          "indexed": false,
          "internalType": "uint256",
          "name": "_totalTokens",
          "type": "uint256"
        }
      ],
      "name": "VestingFunds",
      "type": "event"
    },
    {
      "inputs": [
        {
          "internalType": "address",
          "name": "_userAddr",
          "type": "address"
        },
        {
          "internalType": "uint256",
          "name": "amount",
          "type": "uint256"
        },
        {
          "internalType": "uint256",
          "name": "tokensClaimed",
          "type": "uint256"
        }
      ],
      "name": "addWhiteList",
      "outputs": [],
      "stateMutability": "nonpayable",
      "type": "function"
    },
    {
      "inputs": [],
      "name": "claim",
      "outputs": [],
      "stateMutability": "nonpayable",
      "type": "function"
    },
    {
      "inputs": [],
      "name": "cliff",
      "outputs": [
        {
          "internalType": "uint256",
          "name": "",
          "type": "uint256"
        }
      ],
      "stateMutability": "view",
      "type": "function"
    },
    {
      "inputs": [],
      "name": "firstRelease",
      "outputs": [
        {
          "internalType": "uint256",
          "name": "",
          "type": "uint256"
        }
      ],
      "stateMutability": "view",
      "type": "function"
    },
    {
      "inputs": [
        {
          "internalType": "uint256",
          "name": "_totalTokens",
          "type": "uint256"
        }
      ],
      "name": "fundVesting",
      "outputs": [],
      "stateMutability": "nonpayable",
      "type": "function"
    },
    {
      "inputs": [],
      "name": "getBalance",
      "outputs": [
        {
          "internalType": "uint256",
          "name": "",
          "type": "uint256"
        }
      ],
      "stateMutability": "view",
      "type": "function"
    },
    {
      "inputs": [],
      "name": "getTotalTokens",
      "outputs": [
        {
          "internalType": "uint256",
          "name": "",
          "type": "uint256"
        }
      ],
      "stateMutability": "view",
      "type": "function"
    },
    {
      "inputs": [
        {
          "internalType": "address",
          "name": "addr",
          "type": "address"
        }
      ],
      "name": "getUserAmount",
      "outputs": [
        {
          "internalType": "uint256",
          "name": "",
          "type": "uint256"
        }
      ],
      "stateMutability": "view",
      "type": "function"
    },
    {
      "inputs": [
        {
          "internalType": "address",
          "name": "addr",
          "type": "address"
        }
      ],
      "name": "getUserTokenClaimed",
      "outputs": [
        {
          "internalType": "uint256",
          "name": "",
          "type": "uint256"
        }
      ],
      "stateMutability": "view",
      "type": "function"
    },
    {
      "inputs": [],
      "name": "owner",
      "outputs": [
        {
          "internalType": "address",
          "name": "",
          "type": "address"
        }
      ],
      "stateMutability": "view",
      "type": "function"
    },
    {
      "inputs": [],
      "name": "renounceOwnership",
      "outputs": [],
      "stateMutability": "nonpayable",
      "type": "function"
    },
    {
      "inputs": [],
      "name": "startTime",
      "outputs": [
        {
          "internalType": "uint256",
          "name": "",
          "type": "uint256"
        }
      ],
      "stateMutability": "view",
      "type": "function"
    },
    {
      "inputs": [],
      "name": "timePerPeriods",
      "outputs": [
        {
          "internalType": "uint256",
          "name": "",
          "type": "uint256"
        }
      ],
      "stateMutability": "view",
      "type": "function"
    },
    {
      "inputs": [],
      "name": "token",
      "outputs": [
        {
          "internalType": "contract ERC20",
          "name": "",
          "type": "address"
        }
      ],
      "stateMutability": "view",
      "type": "function"
    },
    {
      "inputs": [],
      "name": "totalPeriods",
      "outputs": [
        {
          "internalType": "uint256",
          "name": "",
          "type": "uint256"
        }
      ],
      "stateMutability": "view",
      "type": "function"
    },
    {
      "inputs": [],
      "name": "totalTokens",
      "outputs": [
        {
          "internalType": "uint256",
          "name": "",
          "type": "uint256"
        }
      ],
      "stateMutability": "view",
      "type": "function"
    },
    {
      "inputs": [
        {
          "internalType": "address",
          "name": "newOwner",
          "type": "address"
        }
      ],
      "name": "transferOwnership",
      "outputs": [],
      "stateMutability": "nonpayable",
      "type": "function"
    },
    {
      "inputs": [
        {
          "internalType": "address",
          "name": "",
          "type": "address"
        }
      ],
      "name": "userInfo",
      "outputs": [
        {
          "internalType": "uint256",
          "name": "amount",
          "type": "uint256"
        },
        {
          "internalType": "uint256",
          "name": "tokensClaimed",
          "type": "uint256"
        }
      ],
      "stateMutability": "view",
      "type": "function"
    }
  ],
  "bytecode": "0x608060405234801561001057600080fd5b5060405161104038038061104083398101604081905261002f91610110565b61003f61003a6100bc565b6100c0565b600280546001600160a01b0319166001600160a01b0389161790556003869055600485905560058490556006839055600782905560088190556040517f191dde3e99ae398f28f0457d7346866a4fa04805ac0b57190b944935b5aa7550906100a8908790610177565b60405180910390a150505050505050610180565b3390565b600080546001600160a01b038381166001600160a01b0319831681178455604051919092169283917f8be0079c531659141344cd1fd0a4f28419497f9722a3daafe3b4186f6b6457e09190a35050565b600080600080600080600060e0888a03121561012a578283fd5b87516001600160a01b0381168114610140578384fd5b602089015160408a015160608b015160808c015160a08d015160c0909d0151949e939d50919b909a50909850965090945092505050565b90815260200190565b610eb18061018f6000396000f3fe608060405234801561001057600080fd5b50600436106101165760003560e01c80637c0a0430116100a2578063da5db74811610071578063da5db748146101ed578063f08b82e61461011b578063f2fde38b146101f5578063fc0c546a14610208578063fea708f61461021057610116565b80637c0a0430146101b55780637e1c0c09146101bd5780638da5cb5b146101c5578063d2748257146101da57610116565b80634e71d92d116100e95780634e71d92d14610175578063715018a61461017f578063739135451461018757806377ae87fb1461019a57806378e97925146101ad57610116565b806312065fe01461011b57806313d033c0146101395780631959a00214610141578063327a943a14610162575b600080fd5b610123610218565b6040516101309190610dbc565b60405180910390f35b61012361021e565b61015461014f366004610b6d565b610224565b604051610130929190610dc5565b610123610170366004610b6d565b61023d565b61017d61025c565b005b61017d610757565b61017d610195366004610bd9565b6107a2565b6101236101a8366004610b6d565b6108a3565b6101236108c2565b6101236108c8565b6101236108ce565b6101cd6108d4565b6040516101309190610c3c565b61017d6101e8366004610b87565b6108e3565b610123610996565b61017d610203366004610b6d565b61099c565b6101cd610a0d565b610123610a1c565b60085490565b60075481565b6001602081905260009182526040909120805491015482565b6001600160a01b0381166000908152600160205260409020545b919050565b3360008181526001602081905260409091209081015490541161029a5760405162461bcd60e51b815260040161029190610d3d565b60405180910390fd5b6001600160a01b0381166000908152600160205260408120546003546102cc916064916102c691610a22565b90610a35565b90506103046040518060400160405280601481526020017303334b939ba2932b632b0b9b2aa37b5b2b7399d160651b81525082610a41565b610331604051806040016040528060098152602001681d195cdd081d195cdd60ba1b815250600454610a41565b61035f6040518060400160405280600c81526020016b0313637b1b5903a34b6b29d160a51b81525042610a41565b6004544210610753576103986040518060400160405280600c81526020016b039ba30b93a103a34b6b29d160a51b815250600454610a41565b6001600160a01b03821660009081526001602081905260409091200154806104a65781600854116103db5760405162461bcd60e51b815260040161029190610d72565b60025460405163a9059cbb60e01b81526001600160a01b039091169063a9059cbb9061040d9086908690600401610c74565b602060405180830381600087803b15801561042757600080fd5b505af115801561043b573d6000803e3d6000fd5b505050506040513d601f19601f8201168201806040525081019061045f9190610bb9565b5061046a8183610a86565b90507fe42df0d9493dfd0d7f69902c895b94c190a53e8c27876a86f45e7c997d9d8f7c838360405161049d929190610c74565b60405180910390a15b6001600160a01b0383166000908152600160205260408120546005549091906104d3906102c68487610a92565b905060006104e5826102c68688610a92565b600654909150610500906104fa836001610a86565b90610a22565b61052160075461051b60045442610a9290919063ffffffff16565b90610a92565b1061072d57600061053f600654600554610a2290919063ffffffff16565b421115610557576105508486610a92565b905061058c565b600554821161058c57610589836104fa8461051b6006546102c660075461051b60045442610a9290919063ffffffff16565b90505b60025460405163a9059cbb60e01b81526001600160a01b039091169063a9059cbb906105be908a908590600401610c74565b602060405180830381600087803b1580156105d857600080fd5b505af11580156105ec573d6000803e3d6000fd5b505050506040513d601f19601f820116820180604052508101906106109190610bb9565b5061061b8582610a86565b94506005548214801561062d57508385105b156106cf5761063c8486610a92565b60025460405163a9059cbb60e01b81529192506001600160a01b03169063a9059cbb9061066f908a908590600401610c74565b602060405180830381600087803b15801561068957600080fd5b505af115801561069d573d6000803e3d6000fd5b505050506040513d601f19601f820116820180604052508101906106c19190610bb9565b506106cc8582610a86565b94505b6001600160a01b03871660009081526001602081905260409182902001869055517fe42df0d9493dfd0d7f69902c895b94c190a53e8c27876a86f45e7c997d9d8f7c9061071f9089908490610c74565b60405180910390a15061074e565b61074e604051806060016040528060248152602001610e5860249139610a9e565b505050505b5050565b61075f610ae1565b6001600160a01b03166107706108d4565b6001600160a01b0316146107965760405162461bcd60e51b815260040161029190610d08565b6107a06000610ae5565b565b6107aa610ae1565b6001600160a01b03166107bb6108d4565b6001600160a01b0316146107e15760405162461bcd60e51b815260040161029190610d08565b6002546040516323b872dd60e01b815233916001600160a01b0316906323b872dd9061081590849030908790600401610c50565b602060405180830381600087803b15801561082f57600080fd5b505af1158015610843573d6000803e3d6000fd5b505050506040513d601f19601f820116820180604052508101906108679190610bb9565b507f9055317eb986da3f8abb207df65f535e5c69bd013d5e08b0fa3f22fb97ff0d0c826040516108979190610dbc565b60405180910390a15050565b6001600160a01b03166000908152600160208190526040909120015490565b60045481565b60065481565b60085481565b6000546001600160a01b031690565b6108eb610ae1565b6001600160a01b03166108fc6108d4565b6001600160a01b0316146109225760405162461bcd60e51b815260040161029190610d08565b60408051808201825283815260208082018481526001600160a01b038716600090815260019283905284902083518155905191015590517f9673b736d6d459e4ac9b04562cda5dc89af4d2805f1f001e4293cb844cd6fbd3906109889086908690610c74565b60405180910390a150505050565b60035481565b6109a4610ae1565b6001600160a01b03166109b56108d4565b6001600160a01b0316146109db5760405162461bcd60e51b815260040161029190610d08565b6001600160a01b038116610a015760405162461bcd60e51b815260040161029190610cc2565b610a0a81610ae5565b50565b6002546001600160a01b031681565b60055481565b6000610a2e8284610e0b565b9392505050565b6000610a2e8284610deb565b6107538282604051602401610a57929190610ca0565b60408051601f198184030181529190526020810180516001600160e01b03166309710a9d60e41b179052610b35565b6000610a2e8284610dd3565b6000610a2e8284610e2a565b610a0a81604051602401610ab29190610c8d565b60408051601f198184030181529190526020810180516001600160e01b031663104c13eb60e21b179052610b35565b3390565b600080546001600160a01b038381166001600160a01b0319831681178455604051919092169283917f8be0079c531659141344cd1fd0a4f28419497f9722a3daafe3b4186f6b6457e09190a35050565b80516a636f6e736f6c652e6c6f67602083016000808483855afa5050505050565b80356001600160a01b038116811461025757600080fd5b600060208284031215610b7e578081fd5b610a2e82610b56565b600080600060608486031215610b9b578182fd5b610ba484610b56565b95602085013595506040909401359392505050565b600060208284031215610bca578081fd5b81518015158114610a2e578182fd5b600060208284031215610bea578081fd5b5035919050565b60008151808452815b81811015610c1657602081850181015186830182015201610bfa565b81811115610c275782602083870101525b50601f01601f19169290920160200192915050565b6001600160a01b0391909116815260200190565b6001600160a01b039384168152919092166020820152604081019190915260600190565b6001600160a01b03929092168252602082015260400190565b600060208252610a2e6020830184610bf1565b600060408252610cb36040830185610bf1565b90508260208301529392505050565b60208082526026908201527f4f776e61626c653a206e6577206f776e657220697320746865207a65726f206160408201526564647265737360d01b606082015260800190565b6020808252818101527f4f776e61626c653a2063616c6c6572206973206e6f7420746865206f776e6572604082015260600190565b6020808252818101527f796f75206861766520636c61696d656420616c6c20796f757220746f6b656e73604082015260600190565b6020808252602a908201527f56657374696e6720636f6e747261637420646f65736e74206861766520656e6f60408201526975676874206d6f6e657960b01b606082015260800190565b90815260200190565b918252602082015260400190565b60008219821115610de657610de6610e41565b500190565b600082610e0657634e487b7160e01b81526012600452602481fd5b500490565b6000816000190483118215151615610e2557610e25610e41565b500290565b600082821015610e3c57610e3c610e41565b500390565b634e487b7160e01b600052601160045260246000fdfe74686174206e6f74207965742074696d6520746f20776974686472617720746f6b656e73a26469706673582212208ad7ca71d7c42a19a545f4c32714f71e881d20f2f22d825b6b2f3d02f35ecd9264736f6c63430008000033",
  "linkReferences": {},
  "deployedLinkReferences": {}
}