{
  "_format": "hh-sol-artifact-1",
  "contractName": "VestingContract",
  "sourceName": "contracts/VestingContract.sol",
  "abi": [
    {
      "inputs": [
        {
          "internalType": "address",
          "name": "_token",
          "type": "address"
        },
        {
          "internalType": "uint256",
          "name": "_firstRelease",
          "type": "uint256"
        },
        {
          "internalType": "uint256",
          "name": "_startTime",
          "type": "uint256"
        },
        {
          "internalType": "uint256",
          "name": "_totalPeriods",
          "type": "uint256"
        },
        {
          "internalType": "uint256",
          "name": "_timePerPeriods",
          "type": "uint256"
        },
        {
          "internalType": "uint256",
          "name": "_cliff",
          "type": "uint256"
        },
        {
          "internalType": "uint256",
          "name": "_totalTokens",
          "type": "uint256"
        }
      ],
      "stateMutability": "nonpayable",
      "type": "constructor"
    },
    {
      "anonymous": false,
      "inputs": [
        {
          "indexed": false,
          "internalType": "address",
          "name": "_address",
          "type": "address"
        },
        {
          "indexed": false,
          "internalType": "uint256",
          "name": "_amount",
          "type": "uint256"
        }
      ],
      "name": "AddWhitelistUser",
      "type": "event"
    },
    {
      "anonymous": false,
      "inputs": [
        {
          "indexed": true,
          "internalType": "address",
          "name": "previousOwner",
          "type": "address"
        },
        {
          "indexed": true,
          "internalType": "address",
          "name": "newOwner",
          "type": "address"
        }
      ],
      "name": "OwnershipTransferred",
      "type": "event"
    },
    {
      "anonymous": false,
      "inputs": [
        {
          "indexed": false,
          "internalType": "address",
          "name": "_address",
          "type": "address"
        }
      ],
      "name": "RemoveWHitelistUser",
      "type": "event"
    },
    {
      "anonymous": false,
      "inputs": [
        {
          "indexed": false,
          "internalType": "uint256",
          "name": "_startTime",
          "type": "uint256"
        }
      ],
      "name": "SetStartTime",
      "type": "event"
    },
    {
      "anonymous": false,
      "inputs": [
        {
          "indexed": false,
          "internalType": "address",
          "name": "_address",
          "type": "address"
        },
        {
          "indexed": false,
          "internalType": "uint256",
          "name": "_tokensClaimed",
          "type": "uint256"
        }
      ],
      "name": "TokenClaimed",
      "type": "event"
    },
    {
      "anonymous": false,
      "inputs": [
        {
          "indexed": false,
          "internalType": "uint256",
          "name": "_totalTokens",
          "type": "uint256"
        }
      ],
      "name": "VestingFunds",
      "type": "event"
    },
    {
      "inputs": [
        {
          "internalType": "address",
          "name": "_userAddr",
          "type": "address"
        },
        {
          "internalType": "uint256",
          "name": "amount",
          "type": "uint256"
        },
        {
          "internalType": "uint256",
          "name": "tokensClaimed",
          "type": "uint256"
        }
      ],
      "name": "addWhiteList",
      "outputs": [],
      "stateMutability": "nonpayable",
      "type": "function"
    },
    {
      "inputs": [],
      "name": "claim",
      "outputs": [],
      "stateMutability": "nonpayable",
      "type": "function"
    },
    {
      "inputs": [],
      "name": "cliff",
      "outputs": [
        {
          "internalType": "uint256",
          "name": "",
          "type": "uint256"
        }
      ],
      "stateMutability": "view",
      "type": "function"
    },
    {
      "inputs": [],
      "name": "firstRelease",
      "outputs": [
        {
          "internalType": "uint256",
          "name": "",
          "type": "uint256"
        }
      ],
      "stateMutability": "view",
      "type": "function"
    },
    {
      "inputs": [
        {
          "internalType": "uint256",
          "name": "_totalTokens",
          "type": "uint256"
        }
      ],
      "name": "fundVesting",
      "outputs": [],
      "stateMutability": "nonpayable",
      "type": "function"
    },
    {
      "inputs": [],
      "name": "owner",
      "outputs": [
        {
          "internalType": "address",
          "name": "",
          "type": "address"
        }
      ],
      "stateMutability": "view",
      "type": "function"
    },
    {
      "inputs": [],
      "name": "renounceOwnership",
      "outputs": [],
      "stateMutability": "nonpayable",
      "type": "function"
    },
    {
      "inputs": [],
      "name": "startTime",
      "outputs": [
        {
          "internalType": "uint256",
          "name": "",
          "type": "uint256"
        }
      ],
      "stateMutability": "view",
      "type": "function"
    },
    {
      "inputs": [],
      "name": "timePerPeriods",
      "outputs": [
        {
          "internalType": "uint256",
          "name": "",
          "type": "uint256"
        }
      ],
      "stateMutability": "view",
      "type": "function"
    },
    {
      "inputs": [],
      "name": "token",
      "outputs": [
        {
          "internalType": "contract ERC20",
          "name": "",
          "type": "address"
        }
      ],
      "stateMutability": "view",
      "type": "function"
    },
    {
      "inputs": [],
      "name": "totalPeriods",
      "outputs": [
        {
          "internalType": "uint256",
          "name": "",
          "type": "uint256"
        }
      ],
      "stateMutability": "view",
      "type": "function"
    },
    {
      "inputs": [],
      "name": "totalTokens",
      "outputs": [
        {
          "internalType": "uint256",
          "name": "",
          "type": "uint256"
        }
      ],
      "stateMutability": "view",
      "type": "function"
    },
    {
      "inputs": [
        {
          "internalType": "address",
          "name": "newOwner",
          "type": "address"
        }
      ],
      "name": "transferOwnership",
      "outputs": [],
      "stateMutability": "nonpayable",
      "type": "function"
    },
    {
      "inputs": [
        {
          "internalType": "address",
          "name": "",
          "type": "address"
        }
      ],
      "name": "userInfo",
      "outputs": [
        {
          "internalType": "uint256",
          "name": "amount",
          "type": "uint256"
        },
        {
          "internalType": "uint256",
          "name": "tokensClaimed",
          "type": "uint256"
        }
      ],
      "stateMutability": "view",
      "type": "function"
    }
  ],
  "bytecode": "0x608060405234801561001057600080fd5b50604051610ab1380380610ab183398101604081905261002f916100d1565b61003f61003a61007d565b610081565b600280546001600160a01b0319166001600160a01b039890981697909717909655600394909455600492909255600555600655600755600855610138565b3390565b600080546001600160a01b038381166001600160a01b0319831681178455604051919092169283917f8be0079c531659141344cd1fd0a4f28419497f9722a3daafe3b4186f6b6457e09190a35050565b600080600080600080600060e0888a0312156100eb578283fd5b87516001600160a01b0381168114610101578384fd5b602089015160408a015160608b015160808c015160a08d015160c0909d0151949e939d50919b909a50909850965090945092505050565b61096a806101476000396000f3fe608060405234801561001057600080fd5b50600436106100ea5760003560e01c80637e1c0c091161008c578063da5db74811610066578063da5db74814610193578063f2fde38b1461019b578063fc0c546a146101ae578063fea708f6146101b6576100ea565b80637e1c0c09146101635780638da5cb5b1461016b578063d274825714610180576100ea565b8063715018a6116100c8578063715018a614610138578063739135451461014057806378e97925146101535780637c0a04301461015b576100ea565b806313d033c0146100ef5780631959a0021461010d5780634e71d92d1461012e575b600080fd5b6100f76101be565b6040516101049190610899565b60405180910390f35b61012061011b366004610711565b6101c4565b6040516101049291906108a2565b6101366101dd565b005b61013661047d565b61013661014e366004610784565b6104c8565b6100f7610592565b6100f7610598565b6100f761059e565b6101736105a4565b604051610104919061079c565b61013661018e366004610732565b6105b3565b6100f7610615565b6101366101a9366004610711565b61061b565b61017361068c565b6100f761069b565b60075481565b6001602081905260009182526040909120805491015482565b3360008181526001602052604081205460035482918291610200906064906108c8565b61020a91906108e8565b9050600454421115610477576001600160a01b0384166000908152600160208190526040909120015461031e5780600854116102615760405162461bcd60e51b81526004016102589061084f565b60405180910390fd5b6002546040516323b872dd60e01b81526001600160a01b03909116906323b872dd90610295903090889086906004016107b0565b602060405180830381600087803b1580156102af57600080fd5b505af11580156102c3573d6000803e3d6000fd5b505050506040513d601f19601f820116820180604052508101906102e79190610764565b506001600160a01b038416600090815260016020819052604082200180548392906103139084906108b0565b909155506104779050565b6001600160a01b0384166000908152600160208190526040822080549101546005549192909161034e8585610907565b61035891906108c8565b90506000816103678685610907565b61037191906108c8565b6006549091506103828260016108b0565b61038c91906108e8565b42106104725760008282600654426103a491906108c8565b6103ae9190610907565b6103b891906108e8565b6002546040516323b872dd60e01b81529192506001600160a01b0316906323b872dd906103ed9030908d9086906004016107b0565b602060405180830381600087803b15801561040757600080fd5b505af115801561041b573d6000803e3d6000fd5b505050506040513d601f19601f8201168201806040525081019061043f9190610764565b506001600160a01b0389166000908152600160208190526040822001805483929061046b9084906108b0565b9091555050505b505050505b50505050565b6104856106a1565b6001600160a01b03166104966105a4565b6001600160a01b0316146104bc5760405162461bcd60e51b81526004016102589061081a565b6104c660006106a5565b565b6104d06106a1565b6001600160a01b03166104e16105a4565b6001600160a01b0316146105075760405162461bcd60e51b81526004016102589061081a565b6002546040516323b872dd60e01b815233916001600160a01b0316906323b872dd9061053b908490309087906004016107b0565b602060405180830381600087803b15801561055557600080fd5b505af1158015610569573d6000803e3d6000fd5b505050506040513d601f19601f8201168201806040525081019061058d9190610764565b505050565b60045481565b60065481565b60085481565b6000546001600160a01b031690565b6105bb6106a1565b6001600160a01b03166105cc6105a4565b6001600160a01b0316146105f25760405162461bcd60e51b81526004016102589061081a565b6001600160a01b0390921660009081526001602081905260409091209182550155565b60035481565b6106236106a1565b6001600160a01b03166106346105a4565b6001600160a01b03161461065a5760405162461bcd60e51b81526004016102589061081a565b6001600160a01b0381166106805760405162461bcd60e51b8152600401610258906107d4565b610689816106a5565b50565b6002546001600160a01b031681565b60055481565b3390565b600080546001600160a01b038381166001600160a01b0319831681178455604051919092169283917f8be0079c531659141344cd1fd0a4f28419497f9722a3daafe3b4186f6b6457e09190a35050565b80356001600160a01b038116811461070c57600080fd5b919050565b600060208284031215610722578081fd5b61072b826106f5565b9392505050565b600080600060608486031215610746578182fd5b61074f846106f5565b95602085013595506040909401359392505050565b600060208284031215610775578081fd5b8151801515811461072b578182fd5b600060208284031215610795578081fd5b5035919050565b6001600160a01b0391909116815260200190565b6001600160a01b039384168152919092166020820152604081019190915260600190565b60208082526026908201527f4f776e61626c653a206e6577206f776e657220697320746865207a65726f206160408201526564647265737360d01b606082015260800190565b6020808252818101527f4f776e61626c653a2063616c6c6572206973206e6f7420746865206f776e6572604082015260600190565b6020808252602a908201527f56657374696e6720636f6e747261637420646f65736e74206861766520656e6f60408201526975676874206d6f6e657960b01b606082015260800190565b90815260200190565b918252602082015260400190565b600082198211156108c3576108c361091e565b500190565b6000826108e357634e487b7160e01b81526012600452602481fd5b500490565b60008160001904831182151516156109025761090261091e565b500290565b6000828210156109195761091961091e565b500390565b634e487b7160e01b600052601160045260246000fdfea2646970667358221220c2be92bfef25ec02d349595e14618405dd8769d7c3aebc4b398384bea673c80464736f6c63430008000033",
  "linkReferences": {},
  "deployedLinkReferences": {}
}