{
  "_format": "hh-sol-artifact-1",
  "contractName": "VestingContract",
  "sourceName": "contracts/VestingContract.sol",
  "abi": [
    {
      "inputs": [
        {
          "internalType": "address",
          "name": "_token",
          "type": "address"
        },
        {
          "internalType": "uint256",
          "name": "_firstRelease",
          "type": "uint256"
        },
        {
          "internalType": "uint256",
          "name": "_startTime",
          "type": "uint256"
        },
        {
          "internalType": "uint256",
          "name": "_totalPeriods",
          "type": "uint256"
        },
        {
          "internalType": "uint256",
          "name": "_timePerPeriods",
          "type": "uint256"
        },
        {
          "internalType": "uint256",
          "name": "_cliff",
          "type": "uint256"
        },
        {
          "internalType": "uint256",
          "name": "_totalTokens",
          "type": "uint256"
        }
      ],
      "stateMutability": "nonpayable",
      "type": "constructor"
    },
    {
      "anonymous": false,
      "inputs": [
        {
          "indexed": false,
          "internalType": "address",
          "name": "_address",
          "type": "address"
        },
        {
          "indexed": false,
          "internalType": "uint256",
          "name": "_amount",
          "type": "uint256"
        }
      ],
      "name": "AddWhitelistUser",
      "type": "event"
    },
    {
      "anonymous": false,
      "inputs": [
        {
          "indexed": true,
          "internalType": "address",
          "name": "previousOwner",
          "type": "address"
        },
        {
          "indexed": true,
          "internalType": "address",
          "name": "newOwner",
          "type": "address"
        }
      ],
      "name": "OwnershipTransferred",
      "type": "event"
    },
    {
      "anonymous": false,
      "inputs": [
        {
          "indexed": false,
          "internalType": "address",
          "name": "_address",
          "type": "address"
        }
      ],
      "name": "RemoveWhitelistUser",
      "type": "event"
    },
    {
      "anonymous": false,
      "inputs": [
        {
          "indexed": false,
          "internalType": "uint256",
          "name": "_startTime",
          "type": "uint256"
        }
      ],
      "name": "SetStartTime",
      "type": "event"
    },
    {
      "anonymous": false,
      "inputs": [
        {
          "indexed": false,
          "internalType": "address",
          "name": "_address",
          "type": "address"
        },
        {
          "indexed": false,
          "internalType": "uint256",
          "name": "_tokensClaimed",
          "type": "uint256"
        }
      ],
      "name": "TokenClaimed",
      "type": "event"
    },
    {
      "anonymous": false,
      "inputs": [
        {
          "indexed": false,
          "internalType": "uint256",
          "name": "_totalTokens",
          "type": "uint256"
        }
      ],
      "name": "VestingFunds",
      "type": "event"
    },
    {
      "inputs": [
        {
          "internalType": "address",
          "name": "_userAddr",
          "type": "address"
        },
        {
          "internalType": "uint256",
          "name": "amount",
          "type": "uint256"
        },
        {
          "internalType": "uint256",
          "name": "tokensClaimed",
          "type": "uint256"
        }
      ],
      "name": "addWhiteList",
      "outputs": [],
      "stateMutability": "nonpayable",
      "type": "function"
    },
    {
      "inputs": [],
      "name": "claim",
      "outputs": [],
      "stateMutability": "nonpayable",
      "type": "function"
    },
    {
      "inputs": [],
      "name": "cliff",
      "outputs": [
        {
          "internalType": "uint256",
          "name": "",
          "type": "uint256"
        }
      ],
      "stateMutability": "view",
      "type": "function"
    },
    {
      "inputs": [],
      "name": "firstRelease",
      "outputs": [
        {
          "internalType": "uint256",
          "name": "",
          "type": "uint256"
        }
      ],
      "stateMutability": "view",
      "type": "function"
    },
    {
      "inputs": [
        {
          "internalType": "uint256",
          "name": "_totalTokens",
          "type": "uint256"
        }
      ],
      "name": "fundVesting",
      "outputs": [],
      "stateMutability": "nonpayable",
      "type": "function"
    },
    {
      "inputs": [],
      "name": "getBalance",
      "outputs": [
        {
          "internalType": "uint256",
          "name": "",
          "type": "uint256"
        }
      ],
      "stateMutability": "view",
      "type": "function"
    },
    {
      "inputs": [
        {
          "internalType": "address",
          "name": "addr",
          "type": "address"
        }
      ],
      "name": "getUser",
      "outputs": [
        {
          "components": [
            {
              "internalType": "uint256",
              "name": "amount",
              "type": "uint256"
            },
            {
              "internalType": "uint256",
              "name": "tokensClaimed",
              "type": "uint256"
            }
          ],
          "internalType": "struct VestingContract.UserInfo",
          "name": "",
          "type": "tuple"
        }
      ],
      "stateMutability": "view",
      "type": "function"
    },
    {
      "inputs": [],
      "name": "owner",
      "outputs": [
        {
          "internalType": "address",
          "name": "",
          "type": "address"
        }
      ],
      "stateMutability": "view",
      "type": "function"
    },
    {
      "inputs": [],
      "name": "renounceOwnership",
      "outputs": [],
      "stateMutability": "nonpayable",
      "type": "function"
    },
    {
      "inputs": [],
      "name": "startTime",
      "outputs": [
        {
          "internalType": "uint256",
          "name": "",
          "type": "uint256"
        }
      ],
      "stateMutability": "view",
      "type": "function"
    },
    {
      "inputs": [],
      "name": "timePerPeriods",
      "outputs": [
        {
          "internalType": "uint256",
          "name": "",
          "type": "uint256"
        }
      ],
      "stateMutability": "view",
      "type": "function"
    },
    {
      "inputs": [],
      "name": "token",
      "outputs": [
        {
          "internalType": "contract ERC20",
          "name": "",
          "type": "address"
        }
      ],
      "stateMutability": "view",
      "type": "function"
    },
    {
      "inputs": [],
      "name": "totalPeriods",
      "outputs": [
        {
          "internalType": "uint256",
          "name": "",
          "type": "uint256"
        }
      ],
      "stateMutability": "view",
      "type": "function"
    },
    {
      "inputs": [],
      "name": "totalTokens",
      "outputs": [
        {
          "internalType": "uint256",
          "name": "",
          "type": "uint256"
        }
      ],
      "stateMutability": "view",
      "type": "function"
    },
    {
      "inputs": [
        {
          "internalType": "address",
          "name": "newOwner",
          "type": "address"
        }
      ],
      "name": "transferOwnership",
      "outputs": [],
      "stateMutability": "nonpayable",
      "type": "function"
    },
    {
      "inputs": [
        {
          "internalType": "address",
          "name": "",
          "type": "address"
        }
      ],
      "name": "userInfo",
      "outputs": [
        {
          "internalType": "uint256",
          "name": "amount",
          "type": "uint256"
        },
        {
          "internalType": "uint256",
          "name": "tokensClaimed",
          "type": "uint256"
        }
      ],
      "stateMutability": "view",
      "type": "function"
    }
  ],
  "bytecode": "0x608060405234801561001057600080fd5b50604051610e9a380380610e9a83398101604081905261002f91610110565b61003f61003a6100bc565b6100c0565b600280546001600160a01b0319166001600160a01b0389161790556003869055600485905560058490556006839055600782905560088190556040517f191dde3e99ae398f28f0457d7346866a4fa04805ac0b57190b944935b5aa7550906100a8908790610177565b60405180910390a150505050505050610180565b3390565b600080546001600160a01b038381166001600160a01b0319831681178455604051919092169283917f8be0079c531659141344cd1fd0a4f28419497f9722a3daafe3b4186f6b6457e09190a35050565b600080600080600080600060e0888a03121561012a578283fd5b87516001600160a01b0381168114610140578384fd5b602089015160408a015160608b015160808c015160a08d015160c0909d0151949e939d50919b909a50909850965090945092505050565b90815260200190565b610d0b8061018f6000396000f3fe608060405234801561001057600080fd5b50600436106101005760003560e01c80637c0a043011610097578063da5db74811610066578063da5db748146101d1578063f2fde38b146101d9578063fc0c546a146101ec578063fea708f6146101f457610100565b80637c0a0430146101995780637e1c0c09146101a15780638da5cb5b146101a9578063d2748257146101be57610100565b80636f77926b116100d35780636f77926b14610156578063715018a614610176578063739135451461017e57806378e979251461019157610100565b806312065fe01461010557806313d033c0146101235780631959a0021461012b5780634e71d92d1461014c575b600080fd5b61010d6101fc565b60405161011a9190610c16565b60405180910390f35b61010d610202565b61013e610139366004610a12565b610208565b60405161011a929190610c1f565b610154610221565b005b610169610164366004610a12565b610607565b60405161011a9190610bff565b610154610646565b61015461018c366004610a7e565b610691565b61010d610792565b61010d610798565b61010d61079e565b6101b16107a4565b60405161011a9190610a96565b6101546101cc366004610a2c565b6107b3565b61010d610866565b6101546101e7366004610a12565b61086c565b6101b16108dd565b61010d6108ec565b60085490565b60075481565b6001602081905260009182526040909120805491015482565b604080518082018252601681527554686520726573756c74206973206f766572666c6f7760501b60208083019190915233600081815260019092529281205460035492939282918291610280919061027a9060646108f2565b90610905565b9050600454421115610600576001600160a01b038416600090815260016020819052604090912001546103e35780600854116102d75760405162461bcd60e51b81526004016102ce90610bb5565b60405180910390fd5b6002546040516323b872dd60e01b81526001600160a01b03909116906323b872dd9061030b90309088908690600401610aaa565b602060405180830381600087803b15801561032557600080fd5b505af1158015610339573d6000803e3d6000fd5b505050506040513d601f19601f8201168201806040525081019061035d9190610a5e565b506001600160a01b038416600090815260016020819052604090912001546103859082610911565b6001600160a01b0385166000908152600160208190526040918290200191909155517fe42df0d9493dfd0d7f69902c895b94c190a53e8c27876a86f45e7c997d9d8f7c906103d69086908490610ace565b60405180910390a1610600565b6001600160a01b0384166000908152600160208190526040822080549101546005549192909161041d90610417858761091d565b906108f2565b9050600061042f82610417858861091d565b6006549091506104449061027a836001610911565b61046560075461045f6004544261091d90919063ffffffff16565b9061091d565b106105da5760055481116105d557600061049e8361027a8461045f60065461041760075461045f6004544261091d90919063ffffffff16565b6002546040516323b872dd60e01b81529192506001600160a01b0316906323b872dd906104d39030908d908690600401610aaa565b602060405180830381600087803b1580156104ed57600080fd5b505af1158015610501573d6000803e3d6000fd5b505050506040513d601f19601f820116820180604052508101906105259190610a5e565b506001600160a01b0389166000908152600160208190526040909120015461054d9082610911565b93506005548214801561055f57508484105b1561057b576105786105718587610c84565b8590610911565b93505b6001600160a01b03891660009081526001602081905260409182902001859055517fe42df0d9493dfd0d7f69902c895b94c190a53e8c27876a86f45e7c997d9d8f7c906105cb908b908490610ace565b60405180910390a1505b6105fb565b6105fb604051806060016040528060248152602001610cb260249139610929565b505050505b5050505050565b61060f6109e1565b506001600160a01b03811660009081526001602081815260409283902083518085019094528054845290910154908201525b919050565b61064e61096c565b6001600160a01b031661065f6107a4565b6001600160a01b0316146106855760405162461bcd60e51b81526004016102ce90610b80565b61068f6000610970565b565b61069961096c565b6001600160a01b03166106aa6107a4565b6001600160a01b0316146106d05760405162461bcd60e51b81526004016102ce90610b80565b6002546040516323b872dd60e01b815233916001600160a01b0316906323b872dd9061070490849030908790600401610aaa565b602060405180830381600087803b15801561071e57600080fd5b505af1158015610732573d6000803e3d6000fd5b505050506040513d601f19601f820116820180604052508101906107569190610a5e565b507f9055317eb986da3f8abb207df65f535e5c69bd013d5e08b0fa3f22fb97ff0d0c826040516107869190610c16565b60405180910390a15050565b60045481565b60065481565b60085481565b6000546001600160a01b031690565b6107bb61096c565b6001600160a01b03166107cc6107a4565b6001600160a01b0316146107f25760405162461bcd60e51b81526004016102ce90610b80565b60408051808201825283815260208082018481526001600160a01b038716600090815260019283905284902083518155905191015590517f9673b736d6d459e4ac9b04562cda5dc89af4d2805f1f001e4293cb844cd6fbd3906108589086908690610ace565b60405180910390a150505050565b60035481565b61087461096c565b6001600160a01b03166108856107a4565b6001600160a01b0316146108ab5760405162461bcd60e51b81526004016102ce90610b80565b6001600160a01b0381166108d15760405162461bcd60e51b81526004016102ce90610b3a565b6108da81610970565b50565b6002546001600160a01b031681565b60055481565b60006108fe8284610c45565b9392505050565b60006108fe8284610c65565b60006108fe8284610c2d565b60006108fe8284610c84565b6108da8160405160240161093d9190610ae7565b60408051601f198184030181529190526020810180516001600160e01b031663104c13eb60e21b1790526109c0565b3390565b600080546001600160a01b038381166001600160a01b0319831681178455604051919092169283917f8be0079c531659141344cd1fd0a4f28419497f9722a3daafe3b4186f6b6457e09190a35050565b80516a636f6e736f6c652e6c6f67602083016000808483855afa5050505050565b604051806040016040528060008152602001600081525090565b80356001600160a01b038116811461064157600080fd5b600060208284031215610a23578081fd5b6108fe826109fb565b600080600060608486031215610a40578182fd5b610a49846109fb565b95602085013595506040909401359392505050565b600060208284031215610a6f578081fd5b815180151581146108fe578182fd5b600060208284031215610a8f578081fd5b5035919050565b6001600160a01b0391909116815260200190565b6001600160a01b039384168152919092166020820152604081019190915260600190565b6001600160a01b03929092168252602082015260400190565b6000602080835283518082850152825b81811015610b1357858101830151858201604001528201610af7565b81811115610b245783604083870101525b50601f01601f1916929092016040019392505050565b60208082526026908201527f4f776e61626c653a206e6577206f776e657220697320746865207a65726f206160408201526564647265737360d01b606082015260800190565b6020808252818101527f4f776e61626c653a2063616c6c6572206973206e6f7420746865206f776e6572604082015260600190565b6020808252602a908201527f56657374696e6720636f6e747261637420646f65736e74206861766520656e6f60408201526975676874206d6f6e657960b01b606082015260800190565b815181526020918201519181019190915260400190565b90815260200190565b918252602082015260400190565b60008219821115610c4057610c40610c9b565b500190565b600082610c6057634e487b7160e01b81526012600452602481fd5b500490565b6000816000190483118215151615610c7f57610c7f610c9b565b500290565b600082821015610c9657610c96610c9b565b500390565b634e487b7160e01b600052601160045260246000fdfe74686174206e6f74207965742074696d6520746f20776974686472617720746f6b656e73a264697066735822122089440f0caebada41c539a493f94cb0449e451440ee35524a35d3bf77faf04d0364736f6c63430008000033",
  "linkReferences": {},
  "deployedLinkReferences": {}
}